{
  "contractName": "SolnSquareVerifier",
  "abi": [
    {
      "inputs": [
        {
          "internalType": "address",
          "name": "verifierAddress",
          "type": "address"
        }
      ],
      "payable": false,
      "stateMutability": "nonpayable",
      "type": "constructor"
    },
    {
      "anonymous": false,
      "inputs": [
        {
          "indexed": false,
          "internalType": "uint256",
          "name": "tokenId",
          "type": "uint256"
        },
        {
          "indexed": false,
          "internalType": "address",
          "name": "solution_addr",
          "type": "address"
        },
        {
          "indexed": false,
          "internalType": "bytes32",
          "name": "key",
          "type": "bytes32"
        }
      ],
      "name": "AddedSolutions",
      "type": "event"
    },
    {
      "anonymous": false,
      "inputs": [
        {
          "indexed": true,
          "internalType": "address",
          "name": "owner",
          "type": "address"
        },
        {
          "indexed": true,
          "internalType": "address",
          "name": "approved",
          "type": "address"
        },
        {
          "indexed": true,
          "internalType": "uint256",
          "name": "tokenId",
          "type": "uint256"
        }
      ],
      "name": "Approval",
      "type": "event"
    },
    {
      "anonymous": false,
      "inputs": [
        {
          "indexed": true,
          "internalType": "address",
          "name": "owner",
          "type": "address"
        },
        {
          "indexed": true,
          "internalType": "address",
          "name": "operator",
          "type": "address"
        },
        {
          "indexed": false,
          "internalType": "bool",
          "name": "approved",
          "type": "bool"
        }
      ],
      "name": "ApprovalForAll",
      "type": "event"
    },
    {
      "anonymous": false,
      "inputs": [
        {
          "indexed": true,
          "internalType": "address",
          "name": "account",
          "type": "address"
        }
      ],
      "name": "Paused",
      "type": "event"
    },
    {
      "anonymous": false,
      "inputs": [
        {
          "indexed": true,
          "internalType": "address",
          "name": "from",
          "type": "address"
        },
        {
          "indexed": true,
          "internalType": "address",
          "name": "to",
          "type": "address"
        },
        {
          "indexed": true,
          "internalType": "uint256",
          "name": "tokenId",
          "type": "uint256"
        }
      ],
      "name": "Transfer",
      "type": "event"
    },
    {
      "anonymous": false,
      "inputs": [
        {
          "indexed": true,
          "internalType": "address",
          "name": "oldOwner",
          "type": "address"
        },
        {
          "indexed": true,
          "internalType": "address",
          "name": "newOwner",
          "type": "address"
        }
      ],
      "name": "TransferOwnership",
      "type": "event"
    },
    {
      "anonymous": false,
      "inputs": [
        {
          "indexed": true,
          "internalType": "address",
          "name": "account",
          "type": "address"
        }
      ],
      "name": "Unpaused",
      "type": "event"
    },
    {
      "anonymous": false,
      "inputs": [
        {
          "indexed": false,
          "internalType": "string",
          "name": "s",
          "type": "string"
        }
      ],
      "name": "Verified",
      "type": "event"
    },
    {
      "constant": false,
      "inputs": [
        {
          "internalType": "bytes32",
          "name": "_myid",
          "type": "bytes32"
        },
        {
          "internalType": "string",
          "name": "_result",
          "type": "string"
        }
      ],
      "name": "__callback",
      "outputs": [],
      "payable": false,
      "stateMutability": "nonpayable",
      "type": "function"
    },
    {
      "constant": false,
      "inputs": [
        {
          "internalType": "bytes32",
          "name": "_myid",
          "type": "bytes32"
        },
        {
          "internalType": "string",
          "name": "_result",
          "type": "string"
        },
        {
          "internalType": "bytes",
          "name": "_proof",
          "type": "bytes"
        }
      ],
      "name": "__callback",
      "outputs": [],
      "payable": false,
      "stateMutability": "nonpayable",
      "type": "function"
    },
    {
      "constant": false,
      "inputs": [
        {
          "internalType": "address",
          "name": "newOwner",
          "type": "address"
        }
      ],
      "name": "_transferOwnership",
      "outputs": [],
      "payable": false,
      "stateMutability": "nonpayable",
      "type": "function"
    },
    {
      "constant": false,
      "inputs": [
        {
          "internalType": "address",
          "name": "to",
          "type": "address"
        },
        {
          "internalType": "uint256",
          "name": "tokenId",
          "type": "uint256"
        }
      ],
      "name": "approve",
      "outputs": [],
      "payable": false,
      "stateMutability": "nonpayable",
      "type": "function"
    },
    {
      "constant": true,
      "inputs": [
        {
          "internalType": "address",
          "name": "owner",
          "type": "address"
        }
      ],
      "name": "balanceOf",
      "outputs": [
        {
          "internalType": "uint256",
          "name": "",
          "type": "uint256"
        }
      ],
      "payable": false,
      "stateMutability": "view",
      "type": "function"
    },
    {
      "constant": true,
      "inputs": [],
      "name": "baseTokenURI",
      "outputs": [
        {
          "internalType": "string",
          "name": "",
          "type": "string"
        }
      ],
      "payable": false,
      "stateMutability": "view",
      "type": "function"
    },
    {
      "constant": true,
      "inputs": [
        {
          "internalType": "uint256",
          "name": "tokenId",
          "type": "uint256"
        }
      ],
      "name": "getApproved",
      "outputs": [
        {
          "internalType": "address",
          "name": "",
          "type": "address"
        }
      ],
      "payable": false,
      "stateMutability": "view",
      "type": "function"
    },
    {
      "constant": true,
      "inputs": [],
      "name": "getOwner",
      "outputs": [
        {
          "internalType": "address",
          "name": "",
          "type": "address"
        }
      ],
      "payable": false,
      "stateMutability": "view",
      "type": "function"
    },
    {
      "constant": true,
      "inputs": [
        {
          "internalType": "address",
          "name": "owner",
          "type": "address"
        },
        {
          "internalType": "address",
          "name": "operator",
          "type": "address"
        }
      ],
      "name": "isApprovedForAll",
      "outputs": [
        {
          "internalType": "bool",
          "name": "",
          "type": "bool"
        }
      ],
      "payable": false,
      "stateMutability": "view",
      "type": "function"
    },
    {
      "constant": false,
      "inputs": [
        {
          "internalType": "address",
          "name": "to",
          "type": "address"
        },
        {
          "internalType": "uint256",
          "name": "tokenId",
          "type": "uint256"
        }
      ],
      "name": "mint",
      "outputs": [
        {
          "internalType": "bool",
          "name": "",
          "type": "bool"
        }
      ],
      "payable": false,
      "stateMutability": "nonpayable",
      "type": "function"
    },
    {
      "constant": true,
      "inputs": [],
      "name": "name",
      "outputs": [
        {
          "internalType": "string",
          "name": "",
          "type": "string"
        }
      ],
      "payable": false,
      "stateMutability": "view",
      "type": "function"
    },
    {
      "constant": true,
      "inputs": [
        {
          "internalType": "uint256",
          "name": "tokenId",
          "type": "uint256"
        }
      ],
      "name": "ownerOf",
      "outputs": [
        {
          "internalType": "address",
          "name": "",
          "type": "address"
        }
      ],
      "payable": false,
      "stateMutability": "view",
      "type": "function"
    },
    {
      "constant": false,
      "inputs": [
        {
          "internalType": "address",
          "name": "from",
          "type": "address"
        },
        {
          "internalType": "address",
          "name": "to",
          "type": "address"
        },
        {
          "internalType": "uint256",
          "name": "tokenId",
          "type": "uint256"
        }
      ],
      "name": "safeTransferFrom",
      "outputs": [],
      "payable": false,
      "stateMutability": "nonpayable",
      "type": "function"
    },
    {
      "constant": false,
      "inputs": [
        {
          "internalType": "address",
          "name": "from",
          "type": "address"
        },
        {
          "internalType": "address",
          "name": "to",
          "type": "address"
        },
        {
          "internalType": "uint256",
          "name": "tokenId",
          "type": "uint256"
        },
        {
          "internalType": "bytes",
          "name": "_data",
          "type": "bytes"
        }
      ],
      "name": "safeTransferFrom",
      "outputs": [],
      "payable": false,
      "stateMutability": "nonpayable",
      "type": "function"
    },
    {
      "constant": false,
      "inputs": [
        {
          "internalType": "address",
          "name": "to",
          "type": "address"
        },
        {
          "internalType": "bool",
          "name": "approved",
          "type": "bool"
        }
      ],
      "name": "setApprovalForAll",
      "outputs": [],
      "payable": false,
      "stateMutability": "nonpayable",
      "type": "function"
    },
    {
      "constant": false,
      "inputs": [
        {
          "internalType": "bool",
          "name": "mode",
          "type": "bool"
        }
      ],
      "name": "setPaused",
      "outputs": [],
      "payable": false,
      "stateMutability": "nonpayable",
      "type": "function"
    },
    {
      "constant": true,
      "inputs": [
        {
          "internalType": "bytes4",
          "name": "interfaceId",
          "type": "bytes4"
        }
      ],
      "name": "supportsInterface",
      "outputs": [
        {
          "internalType": "bool",
          "name": "",
          "type": "bool"
        }
      ],
      "payable": false,
      "stateMutability": "view",
      "type": "function"
    },
    {
      "constant": true,
      "inputs": [],
      "name": "symbol",
      "outputs": [
        {
          "internalType": "string",
          "name": "",
          "type": "string"
        }
      ],
      "payable": false,
      "stateMutability": "view",
      "type": "function"
    },
    {
      "constant": true,
      "inputs": [
        {
          "internalType": "uint256",
          "name": "index",
          "type": "uint256"
        }
      ],
      "name": "tokenByIndex",
      "outputs": [
        {
          "internalType": "uint256",
          "name": "",
          "type": "uint256"
        }
      ],
      "payable": false,
      "stateMutability": "view",
      "type": "function"
    },
    {
      "constant": true,
      "inputs": [
        {
          "internalType": "address",
          "name": "owner",
          "type": "address"
        },
        {
          "internalType": "uint256",
          "name": "index",
          "type": "uint256"
        }
      ],
      "name": "tokenOfOwnerByIndex",
      "outputs": [
        {
          "internalType": "uint256",
          "name": "",
          "type": "uint256"
        }
      ],
      "payable": false,
      "stateMutability": "view",
      "type": "function"
    },
    {
      "constant": true,
      "inputs": [
        {
          "internalType": "uint256",
          "name": "tokenId",
          "type": "uint256"
        }
      ],
      "name": "tokenURI",
      "outputs": [
        {
          "internalType": "string",
          "name": "",
          "type": "string"
        }
      ],
      "payable": false,
      "stateMutability": "view",
      "type": "function"
    },
    {
      "constant": true,
      "inputs": [],
      "name": "totalSupply",
      "outputs": [
        {
          "internalType": "uint256",
          "name": "",
          "type": "uint256"
        }
      ],
      "payable": false,
      "stateMutability": "view",
      "type": "function"
    },
    {
      "constant": false,
      "inputs": [
        {
          "internalType": "address",
          "name": "from",
          "type": "address"
        },
        {
          "internalType": "address",
          "name": "to",
          "type": "address"
        },
        {
          "internalType": "uint256",
          "name": "tokenId",
          "type": "uint256"
        }
      ],
      "name": "transferFrom",
      "outputs": [],
      "payable": false,
      "stateMutability": "nonpayable",
      "type": "function"
    },
    {
      "constant": false,
      "inputs": [
        {
          "internalType": "address",
          "name": "newOwner",
          "type": "address"
        }
      ],
      "name": "transferOwnership",
      "outputs": [],
      "payable": false,
      "stateMutability": "nonpayable",
      "type": "function"
    },
    {
      "constant": false,
      "inputs": [
        {
          "internalType": "uint256[2]",
          "name": "a",
          "type": "uint256[2]"
        },
        {
          "internalType": "uint256[2][2]",
          "name": "b",
          "type": "uint256[2][2]"
        },
        {
          "internalType": "uint256[2]",
          "name": "c",
          "type": "uint256[2]"
        },
        {
          "internalType": "uint256[2]",
          "name": "input",
          "type": "uint256[2]"
        }
      ],
      "name": "verifyTx",
      "outputs": [
        {
          "internalType": "bool",
          "name": "r",
          "type": "bool"
        }
      ],
      "payable": false,
      "stateMutability": "nonpayable",
      "type": "function"
    },
    {
      "constant": false,
      "inputs": [
        {
          "internalType": "uint256",
          "name": "id",
          "type": "uint256"
        },
        {
          "internalType": "address",
          "name": "addr",
          "type": "address"
        },
        {
          "internalType": "bytes32",
          "name": "key",
          "type": "bytes32"
        },
        {
          "internalType": "uint256[2]",
          "name": "a",
          "type": "uint256[2]"
        },
        {
          "internalType": "uint256[2][2]",
          "name": "b",
          "type": "uint256[2][2]"
        },
        {
          "internalType": "uint256[2]",
          "name": "c",
          "type": "uint256[2]"
        },
        {
          "internalType": "uint256[2]",
          "name": "inputs",
          "type": "uint256[2]"
        }
      ],
      "name": "addSolution",
      "outputs": [],
      "payable": false,
      "stateMutability": "nonpayable",
      "type": "function"
    },
    {
      "constant": true,
      "inputs": [
        {
          "internalType": "uint256[2]",
          "name": "a",
          "type": "uint256[2]"
        },
        {
          "internalType": "uint256[2][2]",
          "name": "b",
          "type": "uint256[2][2]"
        },
        {
          "internalType": "uint256[2]",
          "name": "c",
          "type": "uint256[2]"
        },
        {
          "internalType": "uint256[2]",
          "name": "inputs",
          "type": "uint256[2]"
        }
      ],
      "name": "generateKey",
      "outputs": [
        {
          "internalType": "bytes32",
          "name": "",
          "type": "bytes32"
        }
      ],
      "payable": false,
      "stateMutability": "pure",
      "type": "function"
    },
    {
      "constant": false,
      "inputs": [
        {
          "internalType": "address",
          "name": "addr",
          "type": "address"
        },
        {
          "internalType": "uint256",
          "name": "tokenId",
          "type": "uint256"
        },
        {
          "internalType": "uint256[2]",
          "name": "a",
          "type": "uint256[2]"
        },
        {
          "internalType": "uint256[2][2]",
          "name": "b",
          "type": "uint256[2][2]"
        },
        {
          "internalType": "uint256[2]",
          "name": "c",
          "type": "uint256[2]"
        },
        {
          "internalType": "uint256[2]",
          "name": "inputs",
          "type": "uint256[2]"
        }
      ],
      "name": "mintToken",
      "outputs": [],
      "payable": false,
      "stateMutability": "nonpayable",
      "type": "function"
    }
  ],
  "bytecode": "0x60806040523480156200001157600080fd5b5060405162004e8638038062004e86833981810160405260208110156200003757600080fd5b81019080805190602001909291905050506040518060400160405280600881526020017f434e58544f4b454e0000000000000000000000000000000000000000000000008152506040518060400160405280600881526020017f546f6b656e6670740000000000000000000000000000000000000000000000008152506040518060600160405280603f815260200162004e47603f9139336000806101000a81548173ffffffffffffffffffffffffffffffffffffffff021916908373ffffffffffffffffffffffffffffffffffffffff1602179055506000809054906101000a900473ffffffffffffffffffffffffffffffffffffffff1673ffffffffffffffffffffffffffffffffffffffff16600073ffffffffffffffffffffffffffffffffffffffff167f5c486528ec3e3f0ea91181cff8116f02bfa350e03b8b6f12e00765adbb5af85c60405160405180910390a360008060146101000a81548160ff021916908315150217905550620001bc6301ffc9a760e01b6200025960201b60201c565b620001d46380ac58cd60e01b6200025960201b60201c565b620001ec63780e9d6360e01b6200025960201b60201c565b81600f908051906020019062000204929190620002f9565b5082601190805190602001906200021d929190620002f9565b50806010908051906020019062000236929190620002f9565b506200024f635b5e139f60e01b6200025960201b60201c565b50505050620003a8565b63ffffffff60e01b817bffffffffffffffffffffffffffffffffffffffffffffffffffffffff191614156200028d57600080fd5b6001806000837bffffffffffffffffffffffffffffffffffffffffffffffffffffffff19167bffffffffffffffffffffffffffffffffffffffffffffffffffffffff1916815260200190815260200160002060006101000a81548160ff02191690831515021790555050565b828054600181600116156101000203166002900490600052602060002090601f016020900481019282601f106200033c57805160ff19168380011785556200036d565b828001600101855582156200036d579182015b828111156200036c5782518255916020019190600101906200034f565b5b5090506200037c919062000380565b5090565b620003a591905b80821115620003a157600081600090555060010162000387565b5090565b90565b614a8f80620003b86000396000f3fe608060405234801561001057600080fd5b50600436106101c45760003560e01c8063621e9ec0116100f9578063b88d4fde11610097578063d29d44ee11610071578063d29d44ee1461115f578063d547cfb7146111a3578063e985e9c514611226578063f2fde38b146112a2576101c4565b8063b88d4fde14610e28578063c87b56dd14610f2d578063ccd5835a14610fd4576101c4565b8063893d20e8116100d3578063893d20e814610b9657806395d89b4114610be05780639c9ff41a14610c63578063a22cb46514610dd8576101c4565b8063621e9ec0146109575780636352211e14610ad057806370a0823114610b3e576101c4565b8063264b8de61161016657806338bbfa501161014057806338bbfa50146106e557806340c10f191461084157806342842e0e146108a75780634f6ccce714610915576101c4565b8063264b8de61461042957806327dc297e146105be5780632f745c5914610683576101c4565b8063095ea7b3116101a2578063095ea7b31461031f57806316c38b3c1461036d57806318160ddd1461039d57806323b872dd146103bb576101c4565b806301ffc9a7146101c957806306fdde031461022e578063081812fc146102b1575b600080fd5b610214600480360360208110156101df57600080fd5b8101908080357bffffffffffffffffffffffffffffffffffffffffffffffffffffffff191690602001909291905050506112e6565b604051808215151515815260200191505060405180910390f35b61023661134e565b6040518080602001828103825283818151815260200191508051906020019080838360005b8381101561027657808201518184015260208101905061025b565b50505050905090810190601f1680156102a35780820380516001836020036101000a031916815260200191505b509250505060405180910390f35b6102dd600480360360208110156102c757600080fd5b81019080803590602001909291905050506113f0565b604051808273ffffffffffffffffffffffffffffffffffffffff1673ffffffffffffffffffffffffffffffffffffffff16815260200191505060405180910390f35b61036b6004803603604081101561033557600080fd5b81019080803573ffffffffffffffffffffffffffffffffffffffff1690602001909291908035906020019092919050505061142d565b005b61039b6004803603602081101561038357600080fd5b810190808035151590602001909291905050506115dc565b005b6103a561174d565b6040518082815260200191505060405180910390f35b610427600480360360608110156103d157600080fd5b81019080803573ffffffffffffffffffffffffffffffffffffffff169060200190929190803573ffffffffffffffffffffffffffffffffffffffff1690602001909291908035906020019092919050505061175a565b005b6105bc60048036036101a081101561044057600080fd5b8101908080359060200190929190803573ffffffffffffffffffffffffffffffffffffffff1690602001909291908035906020019092919080604001906002806020026040519081016040528092919082600260200280828437600081840152601f19601f82011690508083019250505050505091929192908060800190600280602002604051908101604052809291906000905b82821015610529578382604002016002806020026040519081016040528092919082600260200280828437600081840152601f19601f820116905080830192505050505050815260200190600101906104d5565b50505050919291929080604001906002806020026040519081016040528092919082600260200280828437600081840152601f19601f820116905080830192505050505050919291929080604001906002806020026040519081016040528092919082600260200280828437600081840152601f19601f820116905080830192505050505050919291929050505061177d565b005b610681600480360360408110156105d457600080fd5b8101908080359060200190929190803590602001906401000000008111156105fb57600080fd5b82018360208201111561060d57600080fd5b8035906020019184600183028401116401000000008311171561062f57600080fd5b91908080601f016020809104026020016040519081016040528093929190818152602001838380828437600081840152601f19601f820116905080830192505050505050509192919290505050611ac9565b005b6106cf6004803603604081101561069957600080fd5b81019080803573ffffffffffffffffffffffffffffffffffffffff16906020019092919080359060200190929190505050611b0c565b6040518082815260200191505060405180910390f35b61083f600480360360608110156106fb57600080fd5b81019080803590602001909291908035906020019064010000000081111561072257600080fd5b82018360208201111561073457600080fd5b8035906020019184600183028401116401000000008311171561075657600080fd5b91908080601f016020809104026020016040519081016040528093929190818152602001838380828437600081840152601f19601f820116905080830192505050505050509192919290803590602001906401000000008111156107b957600080fd5b8201836020820111156107cb57600080fd5b803590602001918460018302840111640100000000831117156107ed57600080fd5b91908080601f016020809104026020016040519081016040528093929190818152602001838380828437600081840152601f19601f820116905080830192505050505050509192919290505050611b7f565b005b61088d6004803603604081101561085757600080fd5b81019080803573ffffffffffffffffffffffffffffffffffffffff16906020019092919080359060200190929190505050611b84565b604051808215151515815260200191505060405180910390f35b610913600480360360608110156108bd57600080fd5b81019080803573ffffffffffffffffffffffffffffffffffffffff169060200190929190803573ffffffffffffffffffffffffffffffffffffffff16906020019092919080359060200190929190505050611c65565b005b6109416004803603602081101561092b57600080fd5b8101908080359060200190929190505050611c85565b6040518082815260200191505060405180910390f35b610ab6600480360361014081101561096e57600080fd5b8101908080604001906002806020026040519081016040528092919082600260200280828437600081840152601f19601f82011690508083019250505050505091929192908060800190600280602002604051908101604052809291906000905b82821015610a23578382604002016002806020026040519081016040528092919082600260200280828437600081840152601f19601f820116905080830192505050505050815260200190600101906109cf565b50505050919291929080604001906002806020026040519081016040528092919082600260200280828437600081840152601f19601f820116905080830192505050505050919291929080604001906002806020026040519081016040528092919082600260200280828437600081840152601f19601f8201169050808301925050505050509192919290505050611cb9565b604051808215151515815260200191505060405180910390f35b610afc60048036036020811015610ae657600080fd5b8101908080359060200190929190505050611f00565b604051808273ffffffffffffffffffffffffffffffffffffffff1673ffffffffffffffffffffffffffffffffffffffff16815260200191505060405180910390f35b610b8060048036036020811015610b5457600080fd5b81019080803573ffffffffffffffffffffffffffffffffffffffff169060200190929190505050611f3d565b6040518082815260200191505060405180910390f35b610b9e611f8d565b604051808273ffffffffffffffffffffffffffffffffffffffff1673ffffffffffffffffffffffffffffffffffffffff16815260200191505060405180910390f35b610be8611fb6565b6040518080602001828103825283818151815260200191508051906020019080838360005b83811015610c28578082015181840152602081019050610c0d565b50505050905090810190601f168015610c555780820380516001836020036101000a031916815260200191505b509250505060405180910390f35b610dc26004803603610140811015610c7a57600080fd5b8101908080604001906002806020026040519081016040528092919082600260200280828437600081840152601f19601f82011690508083019250505050505091929192908060800190600280602002604051908101604052809291906000905b82821015610d2f578382604002016002806020026040519081016040528092919082600260200280828437600081840152601f19601f82011690508083019250505050505081526020019060010190610cdb565b50505050919291929080604001906002806020026040519081016040528092919082600260200280828437600081840152601f19601f820116905080830192505050505050919291929080604001906002806020026040519081016040528092919082600260200280828437600081840152601f19601f8201169050808301925050505050509192919290505050612058565b6040518082815260200191505060405180910390f35b610e2660048036036040811015610dee57600080fd5b81019080803573ffffffffffffffffffffffffffffffffffffffff169060200190929190803515159060200190929190505050612166565b005b610f2b60048036036080811015610e3e57600080fd5b81019080803573ffffffffffffffffffffffffffffffffffffffff169060200190929190803573ffffffffffffffffffffffffffffffffffffffff1690602001909291908035906020019092919080359060200190640100000000811115610ea557600080fd5b820183602082011115610eb757600080fd5b80359060200191846001830284011164010000000083111715610ed957600080fd5b91908080601f016020809104026020016040519081016040528093929190818152602001838380828437600081840152601f19601f8201169050808301925050505050505091929192905050506122a0565b005b610f5960048036036020811015610f4357600080fd5b81019080803590602001909291905050506122c6565b6040518080602001828103825283818151815260200191508051906020019080838360005b83811015610f99578082015181840152602081019050610f7e565b50505050905090810190601f168015610fc65780820380516001836020036101000a031916815260200191505b509250505060405180910390f35b61115d6004803603610180811015610feb57600080fd5b81019080803573ffffffffffffffffffffffffffffffffffffffff1690602001909291908035906020019092919080604001906002806020026040519081016040528092919082600260200280828437600081840152601f19601f82011690508083019250505050505091929192908060800190600280602002604051908101604052809291906000905b828210156110ca578382604002016002806020026040519081016040528092919082600260200280828437600081840152601f19601f82011690508083019250505050505081526020019060010190611076565b50505050919291929080604001906002806020026040519081016040528092919082600260200280828437600081840152601f19601f820116905080830192505050505050919291929080604001906002806020026040519081016040528092919082600260200280828437600081840152601f19601f820116905080830192505050505050919291929050505061238d565b005b6111a16004803603602081101561117557600080fd5b81019080803573ffffffffffffffffffffffffffffffffffffffff169060200190929190505050612516565b005b6111ab6126d0565b6040518080602001828103825283818151815260200191508051906020019080838360005b838110156111eb5780820151818401526020810190506111d0565b50505050905090810190601f1680156112185780820380516001836020036101000a031916815260200191505b509250505060405180910390f35b6112886004803603604081101561123c57600080fd5b81019080803573ffffffffffffffffffffffffffffffffffffffff169060200190929190803573ffffffffffffffffffffffffffffffffffffffff169060200190929190505050612772565b604051808215151515815260200191505060405180910390f35b6112e4600480360360208110156112b857600080fd5b81019080803573ffffffffffffffffffffffffffffffffffffffff169060200190929190505050612806565b005b600060016000837bffffffffffffffffffffffffffffffffffffffffffffffffffffffff19167bffffffffffffffffffffffffffffffffffffffffffffffffffffffff1916815260200190815260200160002060009054906101000a900460ff169050919050565b606060118054600181600116156101000203166002900480601f0160208091040260200160405190810160405280929190818152602001828054600181600116156101000203166002900480156113e65780601f106113bb576101008083540402835291602001916113e6565b820191906000526020600020905b8154815290600101906020018083116113c957829003601f168201915b5050505050905090565b60006003600083815260200190815260200160002060009054906101000a900473ffffffffffffffffffffffffffffffffffffffff169050919050565b8173ffffffffffffffffffffffffffffffffffffffff166002600083815260200190815260200160002060009054906101000a900473ffffffffffffffffffffffffffffffffffffffff1673ffffffffffffffffffffffffffffffffffffffff1614156114e5576040517f08c379a000000000000000000000000000000000000000000000000000000000815260040180806020018281038252603c8152602001806149fd603c913960400191505060405180910390fd5b6114ef33826128d4565b6114f857600080fd5b816003600083815260200190815260200160002060006101000a81548173ffffffffffffffffffffffffffffffffffffffff021916908373ffffffffffffffffffffffffffffffffffffffff160217905550808273ffffffffffffffffffffffffffffffffffffffff166002600084815260200190815260200160002060009054906101000a900473ffffffffffffffffffffffffffffffffffffffff1673ffffffffffffffffffffffffffffffffffffffff167f8c5be1e5ebec7d5bd14f71427d1e84f3dd0314c0f7b2291e5b200ac8c7c3b92560405160405180910390a45050565b6000809054906101000a900473ffffffffffffffffffffffffffffffffffffffff1673ffffffffffffffffffffffffffffffffffffffff163373ffffffffffffffffffffffffffffffffffffffff161461169e576040517f08c379a00000000000000000000000000000000000000000000000000000000081526004018080602001828103825260148152602001807f6163636f756e74206973206e6f74206f776e657200000000000000000000000081525060200191505060405180910390fd5b80600060146101000a81548160ff0219169083151502179055508015611706573373ffffffffffffffffffffffffffffffffffffffff167f5db9ee0a495bf2e6ff9c91a7834c1ba4fdd244a5e8aa4e537bd38aeae4b073aa60405160405180910390a261174a565b3373ffffffffffffffffffffffffffffffffffffffff167f62e78cea01bee320cd4e420270b5ea74000d11b0c9f74754ebdbfc544b05a25860405160405180910390a25b50565b6000600880549050905090565b61176433826128d4565b61176d57600080fd5b611778838383612969565b505050565b600073ffffffffffffffffffffffffffffffffffffffff1660146000878152602001908152602001600020600b0160009054906101000a900473ffffffffffffffffffffffffffffffffffffffff1673ffffffffffffffffffffffffffffffffffffffff1614611855576040517f08c379a00000000000000000000000000000000000000000000000000000000081526004018080602001828103825260128152602001807f61726561647920657869737420746f6b656e000000000000000000000000000081525060200191505060405180910390fd5b61185d614644565b6040518060c001604052808681526020018581526020018481526020018381526020018981526020018873ffffffffffffffffffffffffffffffffffffffff1681525090506013819080600181540180825580915050906001820390600052602060002090600c0201600090919290919091506000820151816000019060026118e79291906146a8565b506020820151816002019060026118ff9291906146e8565b506040820151816006019060026119179291906146a8565b5060608201518160080190600261192f9291906146a8565b50608082015181600a015560a082015181600b0160006101000a81548173ffffffffffffffffffffffffffffffffffffffff021916908373ffffffffffffffffffffffffffffffffffffffff16021790555050505080601460008881526020019081526020016000206000820151816000019060026119af9291906146a8565b506020820151816002019060026119c79291906146e8565b506040820151816006019060026119df9291906146a8565b506060820151816008019060026119f79291906146a8565b50608082015181600a015560a082015181600b0160006101000a81548173ffffffffffffffffffffffffffffffffffffffff021916908373ffffffffffffffffffffffffffffffffffffffff1602179055509050507ffac47ca840fc89583d0519108e5e757bae9b7b396397392743f64ff5604757a8888888604051808481526020018373ffffffffffffffffffffffffffffffffffffffff1673ffffffffffffffffffffffffffffffffffffffff168152602001828152602001935050505060405180910390a15050505050505050565b611b08828260006040519080825280601f01601f191660200182016040528015611b025781602001600182028038833980820191505090505b50611b7f565b5050565b6000611b1783611f3d565b8210611b2257600080fd5b600660008473ffffffffffffffffffffffffffffffffffffffff1673ffffffffffffffffffffffffffffffffffffffff1681526020019081526020016000208281548110611b6c57fe5b9060005260206000200154905092915050565b505050565b60008060009054906101000a900473ffffffffffffffffffffffffffffffffffffffff1673ffffffffffffffffffffffffffffffffffffffff163373ffffffffffffffffffffffffffffffffffffffff1614611c48576040517f08c379a00000000000000000000000000000000000000000000000000000000081526004018080602001828103825260148152602001807f6163636f756e74206973206e6f74206f776e657200000000000000000000000081525060200191505060405180910390fd5b611c52838361298d565b611c5b826129ae565b6001905092915050565b611c80838383604051806020016040528060008152506122a0565b505050565b6000611c8f61174d565b8210611c9a57600080fd5b60088281548110611ca757fe5b90600052602060002001549050919050565b6000611cc3614738565b604051806040016040528087600060028110611cdb57fe5b6020020151815260200187600160028110611cf257fe5b602002015181525081600001819052506040518060400160405280604051806040016040528088600060028110611d2557fe5b6020020151600060028110611d3657fe5b6020020151815260200188600060028110611d4d57fe5b6020020151600160028110611d5e57fe5b60200201518152508152602001604051806040016040528088600160028110611d8357fe5b6020020151600060028110611d9457fe5b6020020151815260200188600160028110611dab57fe5b6020020151600160028110611dbc57fe5b60200201518152508152508160200181905250604051806040016040528085600060028110611de757fe5b6020020151815260200185600160028110611dfe57fe5b6020020151815250816040018190525060606002604051908082528060200260200182016040528015611e405781602001602082028038833980820191505090505b50905060008090505b6002811015611e8857848160028110611e5e57fe5b6020020151828281518110611e6f57fe5b6020026020010181815250508080600101915050611e49565b506000611e958284612a96565b1415611ef1577f3f3cfdb26fb5f9f1786ab4f1a1f9cd4c0b5e726cbdfc26e495261731aad44e39604051808060200182810382526022815260200180614a396022913960400191505060405180910390a1600192505050611ef8565b6000925050505b949350505050565b60006002600083815260200190815260200160002060009054906101000a900473ffffffffffffffffffffffffffffffffffffffff169050919050565b6000611f86600460008473ffffffffffffffffffffffffffffffffffffffff1673ffffffffffffffffffffffffffffffffffffffff168152602001908152602001600020612c08565b9050919050565b60008060009054906101000a900473ffffffffffffffffffffffffffffffffffffffff16905090565b6060600f8054600181600116156101000203166002900480601f01602080910402602001604051908101604052809291908181526020018280546001816001161561010002031660029004801561204e5780601f106120235761010080835404028352916020019161204e565b820191906000526020600020905b81548152906001019060200180831161203157829003601f168201915b5050505050905090565b6000848484846040516020018085600260200280838360005b8381101561208c578082015181840152602081019050612071565b505050509050018460026000925b818410156120e05782846020020151600260200280838360005b838110156120cf5780820151818401526020810190506120b4565b50505050905001926001019261209a565b9250505083600260200280838360005b8381101561210b5780820151818401526020810190506120f0565b5050505090500182600260200280838360005b8381101561213957808201518184015260208101905061211e565b50505050905001945050505050604051602081830303815290604052805190602001209050949350505050565b3373ffffffffffffffffffffffffffffffffffffffff168273ffffffffffffffffffffffffffffffffffffffff16141561219f57600080fd5b80600560003373ffffffffffffffffffffffffffffffffffffffff1673ffffffffffffffffffffffffffffffffffffffff16815260200190815260200160002060008473ffffffffffffffffffffffffffffffffffffffff1673ffffffffffffffffffffffffffffffffffffffff16815260200190815260200160002060006101000a81548160ff0219169083151502179055508173ffffffffffffffffffffffffffffffffffffffff163373ffffffffffffffffffffffffffffffffffffffff167f17307eab39ab6107e8899845ad3d59bd9653f200f220920489ca2b5937696c3183604051808215151515815260200191505060405180910390a35050565b6122ab84848461175a565b6122b784848484612c16565b6122c057600080fd5b50505050565b60606122d182612dff565b6122da57600080fd5b601260008381526020019081526020016000208054600181600116156101000203166002900480601f0160208091040260200160405190810160405280929190818152602001828054600181600116156101000203166002900480156123815780601f1061235657610100808354040283529160200191612381565b820191906000526020600020905b81548152906001019060200180831161236457829003601f168201915b50505050509050919050565b61239984848484611cb9565b61240b576040517f08c379a000000000000000000000000000000000000000000000000000000000815260040180806020018281038252600c8152602001807f766572696679206572726f72000000000000000000000000000000000000000081525060200191505060405180910390fd5b600061241985858585612058565b9050600073ffffffffffffffffffffffffffffffffffffffff1660146000838152602001908152602001600020600b0160009054906101000a900473ffffffffffffffffffffffffffffffffffffffff1673ffffffffffffffffffffffffffffffffffffffff16146124f3576040517f08c379a00000000000000000000000000000000000000000000000000000000081526004018080602001828103825260128152602001807f61726561647920657869737420746f6b656e000000000000000000000000000081525060200191505060405180910390fd5b6125028688838888888861177d565b61250c8787611b84565b5050505050505050565b6000809054906101000a900473ffffffffffffffffffffffffffffffffffffffff1673ffffffffffffffffffffffffffffffffffffffff163373ffffffffffffffffffffffffffffffffffffffff16146125d8576040517f08c379a00000000000000000000000000000000000000000000000000000000081526004018080602001828103825260148152602001807f6163636f756e74206973206e6f74206f776e657200000000000000000000000081525060200191505060405180910390fd5b600073ffffffffffffffffffffffffffffffffffffffff168173ffffffffffffffffffffffffffffffffffffffff16141561261257600080fd5b8073ffffffffffffffffffffffffffffffffffffffff166000809054906101000a900473ffffffffffffffffffffffffffffffffffffffff1673ffffffffffffffffffffffffffffffffffffffff167f5c486528ec3e3f0ea91181cff8116f02bfa350e03b8b6f12e00765adbb5af85c60405160405180910390a3806000806101000a81548173ffffffffffffffffffffffffffffffffffffffff021916908373ffffffffffffffffffffffffffffffffffffffff16021790555050565b606060108054600181600116156101000203166002900480601f0160208091040260200160405190810160405280929190818152602001828054600181600116156101000203166002900480156127685780601f1061273d57610100808354040283529160200191612768565b820191906000526020600020905b81548152906001019060200180831161274b57829003601f168201915b5050505050905090565b6000600560008473ffffffffffffffffffffffffffffffffffffffff1673ffffffffffffffffffffffffffffffffffffffff16815260200190815260200160002060008373ffffffffffffffffffffffffffffffffffffffff1673ffffffffffffffffffffffffffffffffffffffff16815260200190815260200160002060009054906101000a900460ff16905092915050565b6000809054906101000a900473ffffffffffffffffffffffffffffffffffffffff1673ffffffffffffffffffffffffffffffffffffffff163373ffffffffffffffffffffffffffffffffffffffff16146128c8576040517f08c379a00000000000000000000000000000000000000000000000000000000081526004018080602001828103825260148152602001807f6163636f756e74206973206e6f74206f776e657200000000000000000000000081525060200191505060405180910390fd5b6128d181612516565b50565b6000806128e083611f00565b90508073ffffffffffffffffffffffffffffffffffffffff168473ffffffffffffffffffffffffffffffffffffffff16148061294f57508373ffffffffffffffffffffffffffffffffffffffff16612937846113f0565b73ffffffffffffffffffffffffffffffffffffffff16145b80612960575061295f8185612772565b5b91505092915050565b612974838383612e71565b61297e8382613114565b61298882826132b2565b505050565b6129978282613379565b6129a182826132b2565b6129aa81613591565b5050565b6129b781612dff565b6129c057600080fd5b612a6c60108054600181600116156101000203166002900480601f016020809104026020016040519081016040528092919081815260200182805460018160011615610100020316600290048015612a595780601f10612a2e57610100808354040283529160200191612a59565b820191906000526020600020905b815481529060010190602001808311612a3c57829003601f168201915b5050505050612a67836135dd565b61370a565b601260008381526020019081526020016000209080519060200190612a9292919061476b565b5050565b6000807f30644e72e131a029b85045b68181585d2833e84879b9709143e1f593f00000019050612ac46147eb565b612acc61374e565b9050806080015151600186510114612ae357600080fd5b612aeb614832565b6040518060400160405280600081526020016000815250905060008090505b8651811015612b815783878281518110612b2057fe5b602002602001015110612b3257600080fd5b612b7282612b6d85608001516001850181518110612b4c57fe5b60200260200101518a8581518110612b6057fe5b6020026020010151613b9c565b613c30565b91508080600101915050612b0a565b50612ba4818360800151600081518110612b9757fe5b6020026020010151613c30565b9050612bea85600001518660200151612bbc84613ce3565b8560400151612bce8a60400151613ce3565b8760600151612be08960000151613ce3565b8960200151613d7d565b612bfa5760019350505050612c02565b600093505050505b92915050565b600081600001549050919050565b6000612c378473ffffffffffffffffffffffffffffffffffffffff16613ee1565b612c445760019050612df7565b60008473ffffffffffffffffffffffffffffffffffffffff1663150b7a02338887876040518563ffffffff1660e01b8152600401808573ffffffffffffffffffffffffffffffffffffffff1673ffffffffffffffffffffffffffffffffffffffff1681526020018473ffffffffffffffffffffffffffffffffffffffff1673ffffffffffffffffffffffffffffffffffffffff16815260200183815260200180602001828103825283818151815260200191508051906020019080838360005b83811015612d1f578082015181840152602081019050612d04565b50505050905090810190601f168015612d4c5780820380516001836020036101000a031916815260200191505b5095505050505050602060405180830381600087803b158015612d6e57600080fd5b505af1158015612d82573d6000803e3d6000fd5b505050506040513d6020811015612d9857600080fd5b8101908080519060200190929190505050905063150b7a0260e01b7bffffffffffffffffffffffffffffffffffffffffffffffffffffffff1916817bffffffffffffffffffffffffffffffffffffffffffffffffffffffff1916149150505b949350505050565b6000806002600084815260200190815260200160002060009054906101000a900473ffffffffffffffffffffffffffffffffffffffff169050600073ffffffffffffffffffffffffffffffffffffffff168173ffffffffffffffffffffffffffffffffffffffff161415915050919050565b8273ffffffffffffffffffffffffffffffffffffffff166002600083815260200190815260200160002060009054906101000a900473ffffffffffffffffffffffffffffffffffffffff1673ffffffffffffffffffffffffffffffffffffffff1614612f28576040517f08c379a00000000000000000000000000000000000000000000000000000000081526004018080602001828103825260308152602001806149cd6030913960400191505060405180910390fd5b600073ffffffffffffffffffffffffffffffffffffffff168273ffffffffffffffffffffffffffffffffffffffff161415612fcb576040517f08c379a000000000000000000000000000000000000000000000000000000000815260040180806020018281038252600f8152602001807f696e76616c69642061646472657373000000000000000000000000000000000081525060200191505060405180910390fd5b612fd481613f2c565b61301b600460008573ffffffffffffffffffffffffffffffffffffffff1673ffffffffffffffffffffffffffffffffffffffff168152602001908152602001600020613fea565b613062600460008473ffffffffffffffffffffffffffffffffffffffff1673ffffffffffffffffffffffffffffffffffffffff16815260200190815260200160002061400d565b816002600083815260200190815260200160002060006101000a81548173ffffffffffffffffffffffffffffffffffffffff021916908373ffffffffffffffffffffffffffffffffffffffff160217905550808273ffffffffffffffffffffffffffffffffffffffff168473ffffffffffffffffffffffffffffffffffffffff167fddf252ad1be2c89b69c2b068fc378daa952ba7f163c4a11628f55a4df523b3ef60405160405180910390a4505050565b600061316c6001600660008673ffffffffffffffffffffffffffffffffffffffff1673ffffffffffffffffffffffffffffffffffffffff1681526020019081526020016000208054905061402390919063ffffffff16565b9050600060076000848152602001908152602001600020549050818114613259576000600660008673ffffffffffffffffffffffffffffffffffffffff1673ffffffffffffffffffffffffffffffffffffffff16815260200190815260200160002083815481106131d957fe5b9060005260206000200154905080600660008773ffffffffffffffffffffffffffffffffffffffff1673ffffffffffffffffffffffffffffffffffffffff168152602001908152602001600020838154811061323157fe5b9060005260206000200181905550816007600083815260200190815260200160002081905550505b600660008573ffffffffffffffffffffffffffffffffffffffff1673ffffffffffffffffffffffffffffffffffffffff1681526020019081526020016000208054809190600190036132ab919061484c565b5050505050565b600660008373ffffffffffffffffffffffffffffffffffffffff1673ffffffffffffffffffffffffffffffffffffffff168152602001908152602001600020805490506007600083815260200190815260200160002081905550600660008373ffffffffffffffffffffffffffffffffffffffff1673ffffffffffffffffffffffffffffffffffffffff1681526020019081526020016000208190806001815401808255809150509060018203906000526020600020016000909192909190915055505050565b61338281612dff565b156133f5576040517f08c379a00000000000000000000000000000000000000000000000000000000081526004018080602001828103825260158152602001807f746f6b656e496420616c7265616479206578697374000000000000000000000081525060200191505060405180910390fd5b600073ffffffffffffffffffffffffffffffffffffffff168273ffffffffffffffffffffffffffffffffffffffff161415613498576040517f08c379a00000000000000000000000000000000000000000000000000000000081526004018080602001828103825260128152602001807f6164647265737320697320696e76616c6964000000000000000000000000000081525060200191505060405180910390fd5b6134df600460008473ffffffffffffffffffffffffffffffffffffffff1673ffffffffffffffffffffffffffffffffffffffff16815260200190815260200160002061400d565b816002600083815260200190815260200160002060006101000a81548173ffffffffffffffffffffffffffffffffffffffff021916908373ffffffffffffffffffffffffffffffffffffffff160217905550808273ffffffffffffffffffffffffffffffffffffffff16600073ffffffffffffffffffffffffffffffffffffffff167fddf252ad1be2c89b69c2b068fc378daa952ba7f163c4a11628f55a4df523b3ef60405160405180910390a45050565b6008805490506009600083815260200190815260200160002081905550600881908060018154018082558091505090600182039060005260206000200160009091929091909150555050565b60606000821415613625576040518060400160405280600181526020017f30000000000000000000000000000000000000000000000000000000000000008152509050613705565b600082905060005b6000821461364f578080600101915050600a828161364757fe5b04915061362d565b6060816040519080825280601f01601f1916602001820160405280156136845781602001600182028038833980820191505090505b50905060006001830390505b600086146136fd57600a86816136a257fe5b0660300160f81b828280600190039350815181106136bc57fe5b60200101907effffffffffffffffffffffffffffffffffffffffffffffffffffffffffffff1916908160001a905350600a86816136f557fe5b049550613690565b819450505050505b919050565b6060613746838360405180602001604052806000815250604051806020016040528060008152506040518060200160405280600081525061406d565b905092915050565b6137566147eb565b60405180604001604052807f2a356dfbc471809b062f65c61af69bfa4485317f3a84818f9e8fa57f183a475081526020017f3014bde191015ec24e33b97cd3c1d7fc4caf9ffa8eb89d70a3c2dda2a913637a8152508160000181905250604051806040016040528060405180604001604052807f1aa8594b544a426f8b71bd8a1f189626634d6cfeec82fb7766da00b009bfb3bd81526020017f1295bfda9ae7427e20acb21490b52c333df5803aaf8bfc343b5c92e26a1bbba9815250815260200160405180604001604052807f1b474c0731fea80a911900353806cd3d8b02362c3d64151bcbfc47268bf719f581526020017f2d725723f37d717dadbf79e8290cadffbdffee7d0bd45520e2aaf27fee2c15688152508152508160200181905250604051806040016040528060405180604001604052807f23fe94f4a7353edc32fc423b0f81fee6441886160b50fb71051e2bc731c741f581526020017f19a2d2d71e07eed972c3b340b7b20b51971bd01b751c1a1de462f699836d7a54815250815260200160405180604001604052807f0b297f2d0beec8b7fc2f67c12f214a40e4d855f2bad6315ceffa8a7954ba9d5081526020017f0f488ed26021b0aa9f9c504be64ed370ca98b9f3f7b65bff8fa4e9e98801bc8e8152508152508160400181905250604051806040016040528060405180604001604052807f06641462c65777ff8a30cc61222ebbb207270af43d191d6f5cfc724e3eca977781526020017f0dacab982cd3744065eb369e2f7831b33dc6cf81a5bb2c567b17cc7e659649b3815250815260200160405180604001604052807f0408f764e002b0d5f057fd275a693cbe79f54c207199b7187f767af47075268481526020017f151d527b915ea9c7238072876388497a61bdccb076322936a55e20c091cb110f81525081525081606001819052506003604051908082528060200260200182016040528015613a3d57816020015b613a2a614878565b815260200190600190039081613a225790505b50816080018190525060405180604001604052807f2a17fb8ab680168fccb7802da039dd7b42b4b04f808c043268865d285486ff1b81526020017f14bdb00e49be2d952b68f6704d38450504cd4eda04298798c78c9482e5b34c418152508160800151600081518110613aac57fe5b602002602001018190525060405180604001604052807f1604ea4c9a307f7f599f046ddce4dc3f6cce2af5ee3ded556c3119bff25b843981526020017f30007b96466f463cc7c6b36f79acd8d3b8576e4a2ec4e293c2b979b581bf6a068152508160800151600181518110613b1d57fe5b602002602001018190525060405180604001604052807f06b54476f91baeee2c0e4e60e3b0517f90e9fd83b6efba8439e3d5da531cf66d81526020017f0e843a63a8324c3f94e3412ff0d0292f70770fb30989819ed578962b6def0de78152508160800151600281518110613b8e57fe5b602002602001018190525090565b613ba4614832565b613bac614892565b836000015181600060038110613bbe57fe5b602002018181525050836020015181600160038110613bd957fe5b6020020181815250508281600260038110613bf057fe5b6020020181815250506000606083608084600060076107d05a03f190508060008114613c1b57613c1d565bfe5b5080613c2857600080fd5b505092915050565b613c38614832565b613c406148b4565b836000015181600060048110613c5257fe5b602002018181525050836020015181600160048110613c6d57fe5b602002018181525050826000015181600260048110613c8857fe5b602002018181525050826020015181600360048110613ca357fe5b602002018181525050600060608360c084600060066107d05a03f190508060008114613cce57613cd0565bfe5b5080613cdb57600080fd5b505092915050565b613ceb614832565b60007f30644e72e131a029b85045b68181585d97816a916871ca8d3c208c16d87cfd47905060008360000151148015613d28575060008360200151145b15613d4c576040518060400160405280600081526020016000815250915050613d78565b60405180604001604052808460000151815260200182856020015181613d6e57fe5b0683038152509150505b919050565b600060606004604051908082528060200260200182016040528015613dbc57816020015b613da9614878565b815260200190600190039081613da15790505b50905060606004604051908082528060200260200182016040528015613dfc57816020015b613de96148d6565b815260200190600190039081613de15790505b5090508a82600081518110613e0d57fe5b60200260200101819052508882600181518110613e2657fe5b60200260200101819052508682600281518110613e3f57fe5b60200260200101819052508482600381518110613e5857fe5b60200260200101819052508981600081518110613e7157fe5b60200260200101819052508781600181518110613e8a57fe5b60200260200101819052508581600281518110613ea357fe5b60200260200101819052508381600381518110613ebc57fe5b6020026020010181905250613ed1828261432f565b9250505098975050505050505050565b60008060007fc5d2460186f7233c927e7db2dcc703c0e500b653ca82273b7bfad8045d85a47060001b9050833f9150808214158015613f2357506000801b8214155b92505050919050565b600073ffffffffffffffffffffffffffffffffffffffff166003600083815260200190815260200160002060009054906101000a900473ffffffffffffffffffffffffffffffffffffffff1673ffffffffffffffffffffffffffffffffffffffff1614613fe75760006003600083815260200190815260200160002060006101000a81548173ffffffffffffffffffffffffffffffffffffffff021916908373ffffffffffffffffffffffffffffffffffffffff1602179055505b50565b6140026001826000015461402390919063ffffffff16565b816000018190555050565b6001816000016000828254019250508190555050565b600061406583836040518060400160405280601e81526020017f536166654d6174683a207375627472616374696f6e206f766572666c6f770000815250614584565b905092915050565b6060808690506060869050606086905060608690506060869050606081518351855187518951010101016040519080825280601f01601f1916602001820160405280156140c95781602001600182028038833980820191505090505b509050606081905060008090506000809050600090505b885181101561414e578881815181106140f557fe5b602001015160f81c60f81b83838060010194508151811061411257fe5b60200101907effffffffffffffffffffffffffffffffffffffffffffffffffffffffffffff1916908160001a90535080806001019150506140e0565b600090505b87518110156141c15787818151811061416857fe5b602001015160f81c60f81b83838060010194508151811061418557fe5b60200101907effffffffffffffffffffffffffffffffffffffffffffffffffffffffffffff1916908160001a9053508080600101915050614153565b600090505b8651811015614234578681815181106141db57fe5b602001015160f81c60f81b8383806001019450815181106141f857fe5b60200101907effffffffffffffffffffffffffffffffffffffffffffffffffffffffffffff1916908160001a90535080806001019150506141c6565b600090505b85518110156142a75785818151811061424e57fe5b602001015160f81c60f81b83838060010194508151811061426b57fe5b60200101907effffffffffffffffffffffffffffffffffffffffffffffffffffffffffffff1916908160001a9053508080600101915050614239565b600090505b845181101561431a578481815181106142c157fe5b602001015160f81c60f81b8383806001019450815181106142de57fe5b60200101907effffffffffffffffffffffffffffffffffffffffffffffffffffffffffffff1916908160001a90535080806001019150506142ac565b82995050505050505050505095945050505050565b6000815183511461433f57600080fd5b600083519050600060068202905060608160405190808252806020026020018201604052801561437e5781602001602082028038833980820191505090505b50905060008090505b838110156145245786818151811061439b57fe5b6020026020010151600001518260006006840201815181106143b957fe5b6020026020010181815250508681815181106143d157fe5b6020026020010151602001518260016006840201815181106143ef57fe5b60200260200101818152505085818151811061440757fe5b60200260200101516000015160006002811061441f57fe5b602002015182600260068402018151811061443657fe5b60200260200101818152505085818151811061444e57fe5b60200260200101516000015160016002811061446657fe5b602002015182600360068402018151811061447d57fe5b60200260200101818152505085818151811061449557fe5b6020026020010151602001516000600281106144ad57fe5b60200201518260046006840201815181106144c457fe5b6020026020010181815250508581815181106144dc57fe5b6020026020010151602001516001600281106144f457fe5b602002015182600560068402018151811061450b57fe5b6020026020010181815250508080600101915050614387565b5061452d6148fc565b60006020826020860260208601600060086107d05a03f19050806000811461455457614556565bfe5b508061456157600080fd5b60008260006001811061457057fe5b602002015114159550505050505092915050565b6000838311158290614631576040517f08c379a00000000000000000000000000000000000000000000000000000000081526004018080602001828103825283818151815260200191508051906020019080838360005b838110156145f65780820151818401526020810190506145db565b50505050905090810190601f1680156146235780820380516001836020036101000a031916815260200191505b509250505060405180910390fd5b5060008385039050809150509392505050565b6040518060c0016040528061465761491e565b8152602001614664614940565b815260200161467161491e565b815260200161467e61491e565b815260200160008152602001600073ffffffffffffffffffffffffffffffffffffffff1681525090565b82600281019282156146d7579160200282015b828111156146d65782518255916020019190600101906146bb565b5b5090506146e4919061496d565b5090565b82600280028101928215614727579160200282015b82811115614726578251829060026147169291906146a8565b50916020019190600201906146fd565b5b5090506147349190614992565b5090565b604051806060016040528061474b614878565b81526020016147586148d6565b8152602001614765614878565b81525090565b828054600181600116156101000203166002900490600052602060002090601f016020900481019282601f106147ac57805160ff19168380011785556147da565b828001600101855582156147da579182015b828111156147d95782518255916020019190600101906147be565b5b5090506147e7919061496d565b5090565b6040518060a001604052806147fe614878565b815260200161480b6148d6565b81526020016148186148d6565b81526020016148256148d6565b8152602001606081525090565b604051806040016040528060008152602001600081525090565b81548183558181111561487357818360005260206000209182019101614872919061496d565b5b505050565b604051806040016040528060008152602001600081525090565b6040518060600160405280600390602082028038833980820191505090505090565b6040518060800160405280600490602082028038833980820191505090505090565b60405180604001604052806148e961491e565b81526020016148f661491e565b81525090565b6040518060200160405280600190602082028038833980820191505090505090565b6040518060400160405280600290602082028038833980820191505090505090565b60405180604001604052806002905b61495761491e565b81526020019060019003908161494f5790505090565b61498f91905b8082111561498b576000816000905550600101614973565b5090565b90565b6149bb91905b808211156149b757600081816149ae91906149be565b50600201614998565b5090565b90565b50600081556001016000905556fe66726f6d2061646472657373206973206e6f7420746865206f776e6572206f662074686520676976656e20746f6b656e726571756972652074686520676976656e206164647265737320746f206e6f7420626520746865206f776e6572206f662074686520746f6b656e49645472616e73616374696f6e207375636365737366756c6c792076657269666965642ea265627a7a72315820b36c0819999522fb2687ead1f9cc95f393fb040d2b2285d119b3077c6da960b464736f6c6343000511003268747470733a2f2f73332d75732d776573742d322e616d617a6f6e6177732e636f6d2f756461636974792d626c6f636b636861696e2f63617073746f6e652f",
  "source": "pragma solidity >=0.4.21 <0.6.0;\r\nimport \"openzeppelin-solidity/contracts/utils/Address.sol\";\r\nimport \"./ERC721Mintable.sol\";\r\nimport \"./Verifier.sol\";\r\n\r\n// TODO define a contract call to the zokrates generated solidity contract <Verifier> or <renamedVerifier>\r\n\r\n// TODO define another contract named SolnSquareVerifier that inherits from your ERC721Mintable class\r\ncontract SolnSquareVerifier is Verifier, CustomERC721Token{\r\n\r\n\r\n    constructor( address verifierAddress) public {\r\n        // _squareVerifier = SquareVerifier(verifierAddress);\r\n    }\r\n\r\n    // TODO define a solutions struct that can hold an tokenId & an address\r\n    struct Solution{\r\n        uint[2] a;\r\n        uint[2][2] b;\r\n        uint[2] c;\r\n        uint[2] inputs;\r\n        uint256 tokenId;\r\n        address Address;\r\n    }\r\n\r\n    // TODO define an array of the above struct\r\n    Solution[] solutionsArr;\r\n\r\n    // TODO define a mapping to store unique solutions submitted\r\n    mapping(bytes32 => Solution) solutions_mapping;\r\n\r\n\r\n    // TODO Create an event to emit when a solution is added\r\n    event AddedSolutions(uint256 tokenId, address solution_addr, bytes32 key);\r\n\r\n\r\n    // TODO Create a function to add the solutions to the array and emit the event\r\n    function addSolution( uint256 id, address addr, bytes32 key,\r\n                          uint[2] memory a, uint[2][2] memory b, uint[2] memory c,\r\n                          uint[2] memory inputs) public {\r\n        require(solutions_mapping[key].Address == address(0), \"aready exist token\");\r\n        Solution memory solution = Solution({\r\n            a: a,\r\n            b: b,\r\n            c: c,\r\n            inputs: inputs,\r\n            tokenId: id, \r\n            Address: addr} );\r\n        solutionsArr.push(solution);\r\n        solutions_mapping[key] = solution;\r\n        emit AddedSolutions(id, addr, key);\r\n    }\r\n\r\n\r\n    // TODO Create a function to mint new NFT only after the solution has been verified\r\n    //  - make sure the solution is unique (has not been used before)\r\n    //  - make sure you handle metadata as well as tokenSuplly\r\n    function generateKey(uint[2] memory a,\r\n        uint[2][2] memory b, uint[2] memory c,\r\n        uint[2] memory inputs) pure public returns(bytes32) {\r\n        return keccak256(abi.encodePacked(a, b, c, inputs));\r\n    }\r\n\r\n    function mintToken(address addr, uint256 tokenId,\r\n        uint[2] memory a, uint[2][2] memory b,\r\n        uint[2] memory c, uint[2] memory inputs)\r\n    public\r\n    {\r\n        require(verifyTx(a,b,c,inputs), \"verify error\");\r\n        bytes32 key = generateKey(a, b, c, inputs);\r\n        require(solutions_mapping[key].Address == address(0), \"aready exist token\");\r\n        addSolution(tokenId, addr, key, a, b, c, inputs);\r\n        mint(addr, tokenId);\r\n    }\r\n}\r\n\r\n\r\n  \r\n\r\n\r\n\r\n\r\n\r\n\r\n\r\n\r\n\r\n\r\n\r\n\r\n\r\n\r\n\r\n\r\n\r\n\r\n\r\n\r\n\r\n\r\n\r\n\r\n\r\n\r\n",
  "sourcePath": "E:\\code\\private_blockchain\\Capstone-Real-Estate-Marketplace\\eth-contracts\\contracts\\SolnSquareVerifier.sol",
  "compiler": {
    "name": "solc",
    "version": "0.5.17+commit.d19bba13.Emscripten.clang"
  },
  "schemaVersion": "3.4.9",
  "updatedAt": "2022-08-22T17:10:15.408Z",
  "networkType": "ethereum",
  "devdoc": {
    "methods": {
      "isApprovedForAll(address,address)": {
        "details": "Tells whether an operator is approved by a given owner",
        "params": {
          "operator": "operator address which you want to query the approval of",
          "owner": "owner address which you want to query the approval of"
        },
        "return": "bool whether the given operator is approved by the given owner"
      },
      "setApprovalForAll(address,bool)": {
        "details": "Sets or unsets the approval of a given operator An operator is allowed to transfer all tokens of the sender on their behalf",
        "params": {
          "approved": "representing the status of the approval to be set",
          "to": "operator address to set the approval"
        }
      },
      "supportsInterface(bytes4)": {
        "details": "implement supportsInterface(bytes4) using a lookup table"
      },
      "tokenByIndex(uint256)": {
        "details": "Gets the token ID at a given index of all the tokens in this contract Reverts if the index is greater or equal to the total number of tokens",
        "params": {
          "index": "uint256 representing the index to be accessed of the tokens list"
        },
        "return": "uint256 token ID at the given index of the tokens list"
      },
      "tokenOfOwnerByIndex(address,uint256)": {
        "details": "Gets the token ID at a given index of the tokens list of the requested owner",
        "params": {
          "index": "uint256 representing the index to be accessed of the requested tokens list",
          "owner": "address owning the tokens list to be accessed"
        },
        "return": "uint256 token ID at the given index of the tokens list owned by the requested address"
      },
      "totalSupply()": {
        "details": "Gets the total amount of tokens stored by the contract",
        "return": "uint256 representing the total amount of tokens"
      }
    }
  },
  "userdoc": {
    "methods": {
      "getOwner()": {
        "notice": "Look up the address of the owner"
      },
      "transferOwnership(address)": {
        "notice": "Define a public function to transfer ownership"
      }
    }
  }
}